:100000000080001071010000E9010000F101000012
:10001000F9010000010200000902000000000000D8
:10002000000000000000000000000000E1040000EB
:100030001902000000000000D105000019060000B0
:1000400031020000310200003102000031020000E4
:1000500031020000310200003102000031020000D4
:1000600031020000310200003102000031020000C4
:1000700031020000310200003102000031020000B4
:1000800031020000310200003102000031020000A4
:100090003102000031020000310200003102000094
:1000A0003102000031020000310200003102000084
:1000B0003102000031020000310200003102000074
:1000C000310200003102000031020000306A0000FD
:1000D0000000001028000000306A000000C0072067
:1000E00000000000280000106443000000C007204A
:1000F0000000000080B489B000AFF860B9607A6099
:10010000BB68FB61FB68BB6100237B610AE0FB69A4
:100110001A1DFA61BA69111DB96112681A607B690A
:1001200004337B617A697B689A42F0D300BF24373D
:10013000BD4680BC704700BF80B485B000AF78601A
:1001400039607B68FB600023BB6007E0FB681A1D19
:10015000FA6000221A60BB680433BB60BA683B686F
:100160009A42F3D300BF1437BD4680BC704700BF2E
:1001700080B584B000AF194BFB6013E0FB681A1D1B
:10018000FA601B68BB60FB681A1DFA601B687B6025
:10019000FB681A1DFA601B683B603A687968B868AA
:1001A000FFF7A8FFFB680E4A9342E7D30DE0FB6818
:1001B0001A1DFA601B687B60FB681A1DFA601B68D9
:1001C0003B6039687868FFF7B7FFFB68054A9342E0
:1001D000EDD302F07DF803F0F7FCFEE7CC00000061
:1001E000E4000000F400000080B400AFFEE700BFB0
:1001F00080B400AFFEE700BF80B400AFFEE700BFF1
:1002000080B400AFFEE700BF80B400AFFEE700BFE0
:1002100080B400AFFEE700BF80B400AFFEE700BFD0
:1002200080B400AFFEE700BF80B400AFFEE700BFC0
:1002300080B400AFFEE700BF80B400AF30BF00BFA6
:10024000BD4680BC704700BF80B584B000AF786009
:100250000023FB607B6803F00703002B04D07B685E
:1002600023F0070308337B6000F0A8FE164B1B68E1
:10027000002B05D1154B23F007031A46124B1A60C9
:10028000134B1A687B68134443F6F772934213D8F2
:100290000F4B1A687B681A440D4B1B689A420BD9A6
:1002A000094B1A680A4B1B681344FB60084B1A6819
:1002B0007B681344064A136000F0C8FEFB681846CA
:1002C0001037BD4680BD00BF2C400010300000102C
:1002D0002840001080B483B000AF786000BF0C37B6
:1002E000BD4680BC704700BF80B483B000AF78606B
:1002F0007B6803F108027B685A607B684FF0FF322D
:100300009A607B6803F108027B68DA607B6803F11E
:1003100008027B681A617B6800221A6000BF0C37F4
:10032000BD4680BC704700BF80B483B000AF78602A
:100330007B6800221A6100BF0C37BD4680BC704745
:1003400080B485B000AF786039607B685B68FB6023
:100350003B68FA685A60FB689A683B689A60FB6879
:100360009B683A685A60FB683A689A603B687A68AA
:100370001A617B681B685A1C7B681A6000BF1437BF
:10038000BD4680BC704700BF80B485B000AF7860C8
:1003900039603B681B68BB60BB68B3F1FF3F03D1AA
:1003A0007B681B69FB600CE07B680833FB6002E044
:1003B000FB685B68FB60FB685B681A68BB689A4215
:1003C000F6D9FB685A683B685A603B685B683A68D4
:1003D0009A603B68FA689A60FB683A685A603B68C2
:1003E0007A681A617B681B685A1C7B681A6000BFB8
:1003F0001437BD4680BC704780B485B000AF7860CC
:100400007B681B69FB607B685B687A6892689A60AE
:100410007B689B687A6852685A60FB685A687B6898
:100420009A4203D17B689A68FB685A607B68002215
:100430001A61FB681B685A1EFB681A60FB681B6820
:1004400018461437BD4680BC704700BF80B485B0E5
:1004500000AFF860B9607A60FB68043BFB60FB6842
:100460004FF080721A60FB68043BFB60BB6823F0AE
:100470000102FB681A60FB68043BFB60084AFB68EA
:100480001A60FB68143BFB607A68FB681A60FB68C3
:10049000203BFB60FB6818461437BD4680BC7047A4
:1004A000A504000080B483B000AF00233B604FF090
:1004B000280383F31188BFF36F8FBFF34F8F7B60E7
:1004C00000BF3B68002BFCD000BF0C37BD4680BC92
:1004D000704700BFFFFFFFFFFFFFFFFFFFFFFFFFB2
:1004E000074B19680868B0E8F00F80F30988BFF37C
:1004F0006F8F4FF0000080F311884EF00D0E7047A3
:100500003C40001000BF00BF06480068006880F350
:10051000088862B661B6BFF34F8FBFF36F8F00DFFD
:1005200000BF00BF08ED00E080B500AF0C4A0C4BE7
:100530001B6843F478031360094A094B1B6843F0B6
:100540007843136000F04CF9064B00221A60FFF765
:10055000DBFF00F0D5FEFFF7A5FF0023184680BDA6
:1005600020ED00E00000001080B483B000AF4FF039
:10057000280383F31188BFF36F8FBFF34F8F7B6026
:10058000044B1B680133034A136000BF0C37BD46A0
:1005900080BC70470000001080B483B000AF094BEE
:1005A0001B68013B074A1360064B1B68002B04D1F4
:1005B00000237B607B6883F3118800BF0C37BD4646
:1005C00080BC704700000010FFFFFFFFFFFFFFFF30
:1005D000EFF30980BFF36F8F0D4B1A6820E9F00F1E
:1005E00010602DE908404FF0280080F3118800F0DA
:1005F00087FE4FF0000080F31188BDE808401968BD
:100600000868B0E8F00F80F30988BFF36F8F704778
:100610003C40001000BF00BF80B582B000AF4FF07B
:10062000280383F31188BFF36F8FBFF34F8F3B60B5
:1006300000F0BAFD0346002B03D0064B4FF080526A
:100640001A6000237B607B6883F3118800BF083742
:10065000BD4680BD04ED00E080B588B000AF786095
:10066000594B1B687A689A4202D9574B1B687B60CA
:10067000564A564B1B6823F001031360544B1A680B
:100680007B68013B5349096801FB03F31344FB6199
:10069000514B1B68FA699A4204D94F4B1B68FA699F
:1006A000D31AFB6172B6BFF34F8FBFF36F8F00F0A9
:1006B0006DFF0346002B10D1484A454B1B68136061
:1006C000424A424B1B6843F001031360434A414BCB
:1006D0001B68013B136062B671E0404AFB6913601E
:1006E0003B4B00221A60394A384B1B6843F0010328
:1006F00013607B683B613B69002B04D0BFF34F8FD5
:1007000030BFBFF36F8F62B6BFF34F8FBFF36F8FF2
:1007100072B6BFF34F8FBFF36F8F2C4B06221A6058
:100720002A4B1B6803F48033002B1DD0294B1A6819
:10073000274B1968FB69CB1A1344013B7B61264B9D
:100740001B687A699A4204D3224B1B687A699A42E1
:1007500003D9204B1B68013B7B61204A7B691360F6
:100760007B68013BBB6118E01A4B1B687A6802FB8F
:1007700003F2174B1B68D31AFB60164B1B68FA6811
:10078000B2FBF3F3BB611549BB690133114A12682F
:1007900002FB03F2FB68D31A0B600D4B00221A60B8
:1007A0000A4A0A4B1B6843F001031360B86900F062
:1007B000E9FC0A4A074B1B68013B136062B600BFA5
:1007C0002037BD4680BD00BF3440001010E000E07F
:1007D00018E000E0304000103840001014E000E065
:1007E00080B400AF184B1B68184AA2FB03239B0977
:1007F000174A1360164B1B686FF07F42B2FBF3F38E
:10080000144A1360104B1A680F4B1B68B2FBF3F3CA
:100810002D22B2FBF3F3104A1360104B00221A6032
:100820000F4B00221A600F4A074B1B680749A1FBB8
:1008300003139B09013B1360084B07221A6000BF9A
:10084000BD4680BC704700BF88430010D34D621086
:1008500030400010344000103840001010E000E03C
:1008600018E000E014E000E080B584B000AF7860EC
:1008700039607B68FB60FFF777FEFB681A68FB68EE
:10088000DB6BF968096C01FB03F31A44FB685A60DF
:10089000FB6800229A63FB681A68FB689A60FB6831
:1008A0001A68FB68DB6B013BF968096C01FB03F319
:1008B0001A44FB68DA60FB68FF2283F84420FB6877
:1008C000FF2283F845203B68002B14D1FB681B698D
:1008D000002B1AD0FB681033184600F06DFD03465C
:1008E000002B12D00C4B4FF080521A60BFF34F8F89
:1008F000BFF36F8F09E0FB6810331846FFF7F4FC75
:10090000FB6824331846FFF7EFFCFFF745FE012391
:1009100018461037BD4680BD04ED00E080B58AB0B2
:1009200002AFF860B9601346FB71BB68002B02D1BF
:100930000023FB6104E0FB68BA6802FB03F3FB6180
:10094000FB6950331846FFF77FFCB861BB69002B89
:100950000BD0BB6950337B61FA79BB6900931346B6
:100960007A69B968F86800F005F8BB69184620375D
:10097000BD4680BD80B584B000AFF860B9607A60D4
:10098000FB70BB68002B03D1BB69BA691A6002E037
:10099000BB697A681A60BB69FA68DA63BB69BA68CE
:1009A0001A640121B869FFF75FFFBB69FA7883F821
:1009B0004C2000BF1037BD4680BD00BF80B58AB057
:1009C00000AFF860B9607A603B6000237B62FB682F
:1009D0003B62FFF7C9FD3B6A9A6B3B6ADB6B9A424D
:1009E00002D33B68022B29D13A68B968386A00F013
:1009F0008FF8F8613B6A5B6A002B10D03B6A2433A6
:100A0000184600F0D9FC0346002B13D03F4B4FF0A3
:100A100080521A60BFF34F8FBFF36F8F0AE0FB69FC
:100A2000002B07D0394B4FF080521A60BFF34F8F25
:100A3000BFF36F8FFFF7B0FD012363E07B68002BEE
:100A400003D1FFF7A9FD00235CE07B6A002B06D1F0
:100A500007F11403184600F005FD01237B62FFF740
:100A60009BFD00F0ABFAFFF77FFD3B6A93F8443043
:100A70005BB2B3F1FF3F03D13B6A002283F844200D
:100A80003B6A93F845305BB2B3F1FF3F03D13B6A59
:100A9000002283F84520FFF77FFD3A1D07F114037C
:100AA0001146184600F0F4FC0346002B24D1386AA6
:100AB00000F0EAF80346002B18D03B6A10337A683E
:100AC0001146184600F062FC386A00F08BF800F01E
:100AD000BDFA0346002B7FF47CAF0C4B4FF08052E5
:100AE0001A60BFF34F8FBFF36F8F72E7386A00F061
:100AF00079F800F0ABFA6CE7386A00F073F800F0B0
:100B0000A5FA002318462837BD4680BD04ED00E055
:100B100080B586B000AFF860B9607A6000237B6171
:100B2000FB689B6B3B61FB681B6C002B0DD1FB686A
:100B30001B68002B4DD1FB685B68184600F0F4FD84
:100B40007861FB6800225A6043E07B68002B19D172
:100B5000FB689868FB681B6C1A46B96803F03EF89E
:100B6000FB689A68FB681B6C1A44FB689A60FB6818
:100B70009A68FB685B689A422BD3FB681A68FB682B
:100B80009A6026E0FB68D868FB681B6C1A46B96857
:100B900003F024F8FB68DA68FB681B6C5B421A44BC
:100BA000FB68DA60FB68DA68FB681B689A4207D268
:100BB000FB685A68FB681B6C5B421A44FB68DA608E
:100BC0007B68022B05D13B69002B02D03B69013BBE
:100BD0003B613B695A1CFB689A637B69184618376E
:100BE000BD4680BD80B584B000AF7860FFF7BCFC27
:100BF0007B6893F84530FB7311E07B685B6A002BE0
:100C000012D07B682433184600F0D6FB0346002B35
:100C100001D000F083FCFB7B013BDBB2FB7397F957
:100C20000F30002BE9DC00E000BF7B68FF2283F877
:100C30004520FFF7B1FCFFF797FC7B6893F8443041
:100C4000BB7311E07B681B69002B12D07B681033EB
:100C5000184600F0B1FB0346002B01D000F05EFC0B
:100C6000BB7B013BDBB2BB7397F90E30002BE9DC99
:100C700000E000BF7B68FF2283F84420FFF78CFC74
:100C800000BF1037BD4680BD80B584B000AF78602E
:100C9000FFF76AFC7B689A6B7B68DB6B9A4202D138
:100CA0000123FB6001E00023FB60FFF775FCFB689C
:100CB00018461037BD4680BD80B58CB004AFF860D3
:100CC000B9603B601346FB80FB889B001846FFF72A
:100CD000BBFA78617B69002B0ED06020FFF7B4FA75
:100CE000F861FB69002B03D0FB697A691A6305E0A0
:100CF0007869FFF7EFFA01E00023FB61FB69002B45
:100D000013D0FA8800230393FB690293FB6A0193D3
:100D1000BB6A00933B68B968F86800F00FF8F8699F
:100D200000F084F80123BB6102E04FF0FF33BB61A8
:100D3000BB6918462037BD4680BD00BF80B586B070
:100D400000AFF860B9607A603B60BB6A186B7B6883
:100D50009B001A46A52102F043FFBB6A1A6B7B6811
:100D600003F18043013B9B0013443B613B6923F04B
:100D700007033B6100237B6112E0BA687B6913447F
:100D80001978BA6A7B69134434330A461A70BA6810
:100D90007B6913441B78002B06D07B6901337B6190
:100DA0007B69132BE9D900E000BFBB6A002283F8FE
:100DB00047203B6A072B01D907233B62BB6A3A6A8B
:100DC000DA62BB6A3A6A1A65BB6A00225A65BB6A74
:100DD00004331846FFF7A8FABB6A18331846FFF722
:100DE000A3FABB6ABA6A1A613B6AC3F10802BB6A1A
:100DF0009A61BB6ABA6A5A62BB6A00229A65BB6A88
:100E0000002283F85C203A68F9683869FFF71EFB16
:100E10000246BB6A1A607B6A002B02D07B6ABA6A00
:100E20001A6000BF1837BD4680BD00BF80B582B0D4
:100E300000AF7860FFF798FB2C4B1B6801332B4AFF
:100E400013602B4B1B68002B09D1294A7B68136068
:100E5000264B1B68012B10D100F0C6FB0DE0254B83
:100E60001B68002B09D1224B1B68DA6A7B68DB6A9E
:100E70009A4202D81E4A7B6813601F4B1B680133DD
:100E80001D4A13601C4B1A687B689A647B68DB6A96
:100E900001229A40194B1B681343184A13607B6860
:100EA000DA6A13469B0013449B00154A1A447B6878
:100EB000043319461046FFF743FAFFF76DFB0D4B5D
:100EC0001B68002B0ED00A4B1B68DA6A7B68DB6A52
:100ED0009A4207D20B4B4FF080521A60BFF34F8FEC
:100EE000BFF36F8F00BF0837BD4680BD5041001073
:100EF0003C4000105C4100106C4100105841001053
:100F00004040001004ED00E080B584B000AF786090
:100F10000023FB607B68002B08D000F04FF8002115
:100F2000786800F047FD00F091F8F860FB68002B4E
:100F300007D1064B4FF080521A60BFF34F8FBFF3BB
:100F40006F8F00BF1037BD4680BD00BF04ED00E0CD
:100F500080B584B002AF134B0193002300930023AC
:100F6000802211491148FFF7A7FE78607B68012BAA
:100F700014D14FF0280383F31188BFF36F8FBFF3B1
:100F80004F8F3B600A4B4FF0FF321A60094B012232
:100F90001A60094B00221A60FFF7C6FA00BF083733
:100FA000BD4680BD74410010646700003515000027
:100FB000704100105C4100105441001080B400AF3B
:100FC000044B1B680133034A136000BFBD4680BC5D
:100FD000704700BF7841001080B485B000AF002397
:100FE000BB6001237B60144B1A687B689A4201D96D
:100FF0000123BB60114B1B68DB6A002B02D000236E
:10100000FB6012E00E4B1B68012B02D90023FB6032
:101010000BE0BB68002B02D00023FB6005E0094B0E
:101020001A68094B1B68D31AFB60FB681846143713
:10103000BD4680BC704700BF584100103C400010C6
:1010400040400010704100105441001080B584B041
:1010500000AF0023FB600023BB60FFF785FA394B2C
:101060001B68013B374A1360364B1B68002B61D16C
:10107000354B1B68002B5DD02EE0344BDB68DB6802
:10108000FB60FB6818331846FFF7B6F9FB680433BA
:101090001846FFF7B1F9FB68DB6A01229A402C4B36
:1010A0001B6813432A4A1360FB68DA6A13469B00E5
:1010B00013449B00274A1A44FB6804331946104620
:1010C000FFF73EF9FB68DA6A234B1B68DB6A9A423A
:1010D00002D3224B01221A601C4B1B68002BCCD17F
:1010E000FB68002B01D000F0FBFA1D4B1B687B60F6
:1010F0007B68002B10D000F057F80346002B02D07D
:10110000164B01221A607B68013B7B607B68002BD9
:10111000F1D1134B00221A60104B1B68002B09D031
:101120000123BB600F4B4FF080521A60BFF34F8F0B
:10113000BFF36F8FFFF730FABB6818461037BD4614
:1011400080BD00BF784100105041001010410010D8
:1011500058410010404000103C4000106441001015
:101160006041001004ED00E080B483B000AF044B98
:101170001B687B607B6818460C37BD4680BC704797
:101180005441001080B483B000AF7860054B1A68FA
:101190007B681344034A136000BF0C37BD4680BC14
:1011A000704700BF5441001080B586B000AF0023E7
:1011B0007B61484B1B68002B7CD1474B1B6801337C
:1011C0003B61454A3B6913603B69002B10D1434B9F
:1011D0001B68FB60424B1B68404A1360404AFB6837
:1011E0001360404B1B6801333E4A136000F078FAED
:1011F0003D4B1B683A699A424DD3384B1B681B68BC
:10120000002B01D1012300E00023002B04D0364B3A
:101210004FF0FF321A603EE0304B1B68DB68DB6842
:10122000BB60BB685B687B603A697B689A4203D2AB
:101230002D4A7B6813602EE0BB6804331846FFF725
:10124000DBF8BB689B6A002B04D0BB6818331846D8
:10125000FFF7D2F8BB68DB6A01229A40234B1B6878
:101260001343224A1360BB68DA6A13469B00134497
:101270009B001F4A1A44BB68043319461046FFF707
:101280005FF8BB68DA6A1B4B1B68DB6A9A42B4D30F
:1012900001237B61B1E7174B1B68DA6A14491346D7
:1012A0009B0013449B000B441B68012B07D90123AF
:1012B0007B6104E0104B1B6801330F4A13600F4B36
:1012C0001B68002B01D001237B617B69184618370E
:1012D000BD4680BD78410010544100100841001007
:1012E0000C4100106841001070410010584100107E
:1012F000404000103C40001060410010644100106C
:1013000080B485B000AF1C4B1B68002B03D01B4B77
:1013100001221A602AE0194B00221A60184B1B6840
:101320007B607B68B3FA83F3FB70FB78C3F11F0328
:10133000FB60FA6813469B0013449B00114A134458
:10134000BB60BB685B685A68BB685A60BB685A6818
:10135000BB6808339A4204D1BB685B685A68BB68B3
:101360005A60BB685B68DB68074A136000BF1437CC
:10137000BD4680BC704700BF78410010644100103A
:1013800058410010404000103C40001080B582B031
:1013900000AF78603960074B1B68183319467868CE
:1013A000FEF7F2FF0121386800F004FB00BF0837A8
:1013B000BD4680BD3C40001080B584B000AF786071
:1013C0007B68DB68DB68BB60BB6818331846FFF7D7
:1013D00013F81E4B1B68002B1CD1BB680433184646
:1013E000FFF70AF8BB68DB6A01229A40184B1B68BA
:1013F0001343174A1360BB68DA6A13469B00134411
:101400009B00144A1A44BB68043319461046FEF781
:1014100097FF05E0BB68183319460F48FEF790FFA9
:10142000BB68DA6A0D4B1B68DB6A9A4205D9012357
:10143000FB600B4B01221A6001E00023FB6000F00F
:101440004FF9FB6818461037BD4680BD7841001043
:101450005841001040400010104100103C40001066
:101460006441001080B483B000AF7860064B1A6806
:101470007B681A60054B1A687B685A6000BF0C379E
:10148000BD4680BC704700BF684100105441001049
:1014900080B586B000AF78603960FFF765F81D4B06
:1014A0001B683B617B685B683A69D31AFB603B68E9
:1014B0001B68B3F1FF3F02D100237B6123E07B680F
:1014C0001A68154B1B689A4207D07B685A683B69BB
:1014D0009A4202D801237B6115E03B681A68FB68D9
:1014E0009A420BD93B681A68FB68D21A3B681A60AB
:1014F0007868FFF7B7FF00237B6104E03B680022B8
:101500001A6001237B61FFF747F87B69184618379B
:10151000BD4680BD544100106841001080B400AF4A
:10152000034B01221A6000BFBD4680BC704700BF5C
:101530006441001080B584B000AF786000F094F88A
:10154000104B1B68012B07D90F4B4FF080521A60CC
:10155000BFF34F8FBFF36F8FFEF76EFEFFF73CFDBB
:10156000F860FB68012BE9D9FFF728FDFFF734FD90
:10157000F860FB68012B02D9F868FFF76DF8FFF7F8
:1015800065FDDBE74040001004ED00E080B483B06F
:1015900000AF01233B600123FB710F4B1B68002B45
:1015A00002D00023FB7110E00C4B1B68002B02D013
:1015B0000023FB7109E00A4B1A680A4B19683B6863
:1015C000CB1A9A4201D10223FB71FB7918460C37E2
:1015D000BD4680BC704700BF104100106441001040
:1015E0003C4100105041001080B582B000AF002394
:1015F0007B600CE07A6813469B0013449B00124A00
:1016000013441846FEF770FE7B6801337B607B68ED
:10161000072BEFD90D48FEF767FE0D48FEF764FE75
:101620000C48FEF761FE0C48FEF75EFE0B48FEF725
:101630005BFE0B4B054A1A600A4B054A1A6000BF55
:101640000837BD4680BD00BF40400010E04000109C
:10165000F440001010410010244100103C410010E3
:10166000084100100C41001080B582B000AF19E0B5
:10167000FEF77AFF0F4BDB68DB687B607B68043327
:101680001846FEF7B9FE0C4B1B68013B0A4A136073
:101690000A4B1B68013B094A1360FEF77DFF78681F
:1016A00000F00EF8054B1B68002BE1D100BF083796
:1016B000BD4680BD2441001050410010384100104B
:1016C00080B582B000AF78607B681B6B1846FEF770
:1016D00001FE7868FEF7FEFD00BF0837BD4680BDFD
:1016E00080B483B000AF0E4B1B681B68002B01D188
:1016F000012300E00023002B04D00A4B4FF0FF32FF
:101700001A6008E0064B1B68DB68DB687B607B685F
:101710005B68044A136000BF0C37BD4680BC70474D
:10172000084100107041001080B584B000AF7860AF
:101730007B68BB600023FB607B68002B4FD0BB68DD
:101740005B6D5A1EBB685A65BB68DA6ABB681B6D65
:101750009A4244D0BB685B6D002B40D1BB68043318
:101760001846FEF749FE0346002B15D1BB68DA6A1E
:101770001D4913469B0013449B000B441B68002B20
:101780000AD1BB68DB6A012202FA03F3DA43174B82
:101790001B681340154A1360BB681A6DBB68DA6298
:1017A000BB68DB6AC3F10802BB689A61BB68DB6A8D
:1017B00001229A400D4B1B6813430C4A1360BB680F
:1017C000DA6A13469B0013449B00074A1A44BB681D
:1017D000043319461046FEF7B3FD0123FB60FB6896
:1017E00018461037BD4680BD4040001058410010DB
:1017F00080B586B000AFF860B9607A603B60FEF7F4
:10180000B3FE264B1B6893F85C30DBB2022B1AD078
:10181000224B1B68996DFA68D2430A409A651F4BA8
:101820001B68012283F85C203B68002B0BD0012150
:10183000386800F0BFF81A4B4FF080521A60BFF3BF
:101840004F8FBFF36F8FFEF7A7FEFEF78DFE7B680D
:10185000002B04D0114B1B689A6D7B681A600F4BEC
:101860001B6893F85C30DBB2022B02D000237B6153
:1018700008E00A4B1B68996DBA68D2430A409A6522
:1018800001237B61054B1B68002283F85C20FEF777
:1018900083FE7B6918461837BD4680BD3C4000106A
:1018A00004ED00E080B588B000AFF860B9603B603F
:1018B0001346FB710123FB61FB68BB61FEF754FE1D
:1018C0003B68002B03D0BB699A6D3B681A60BB690B
:1018D00093F85C30FB75BB69022283F85C20FB79CE
:1018E000042B28D801A252F823F000BF37190000BA
:1018F000011900000F1900001B1900002319000036
:10190000BB699A6DBB681A43BB699A6513E0BB69F2
:101910009B6D5A1CBB699A650DE0BB69BA689A65F4
:1019200009E0FB7D022B03D0BB69BA689A6501E030
:101930000023FB6100BFFB7D012B2CD1BB6904336D
:101940001846FEF759FDBB69DB6A01229A40154B28
:101950001B681343134A1360BB69DA6A13469B0082
:1019600013449B00104A1A44BB69043319461046BD
:10197000FEF7E6FCFFF7B4FEBB69DA6A0B4B1B68A7
:10198000DB6A9A4207D90A4B4FF080521A60BFF3C4
:101990004F8FBFF36F8FFEF7FFFDFB6918462037AF
:1019A000BD4680BD58410010404000103C40001032
:1019B00004ED00E080B584B000AF78603960294B59
:1019C0001B68FB60284B1B6804331846FEF714FDA8
:1019D0000346002B0BD1244B1B68DB6A012202FA61
:1019E00003F3DA43214B1B681340204A13607B68E2
:1019F000B3F1FF3F0AD13B68002B07D01A4B1B689D
:101A0000043319461A48FEF79BFC26E0FA687B6807
:101A10001344BB60144B1B68BA685A60BA68FB6811
:101A20009A4209D2134B1A680F4B1B6804331946AC
:101A30001046FEF7A9FC10E00F4B1A680A4B1B6812
:101A4000043319461046FEF79FFC0C4B1B68BA681E
:101A50009A4202D2094ABB68136000BF1037BD46E4
:101A600080BD00BF544100103C40001058410010A0
:101A70003C4100100C410010084100107041001062
:101A800080B584B000AF78604FF00003FB6007239F
:101A9000BB600BE0BB68013B174A52F82320164994
:101AA000BB6841F82320BB68013BBB60BB68002BCF
:101AB000F0DC114A7B6813600023BB6014E00F4A1E
:101AC000BB6852F823000C4ABB6852F82330194611
:101AD00004F012FC03461946F86804F035FD03468D
:101AE000FB60BB680133BB60BB68072BE7DDFB68AD
:101AF00018461037BD4680BD20430010040000107A
:101B000090B587B000AFF860B9607A603B60BA68A2
:101B10007B68D31A184603F0ABFC0346184604F062
:101B200095FD04463A68BB6AD31A184603F0A0FC38
:101B30000346184604F08AFD03461946204604F081
:101B400033FC03463B613C237B614FF00001386965
:101B500004F0A4FD0346002B1AD0BA68FB68D31A20
:101B6000184604F073FD03463969184604F01CFC5E
:101B700003461C46386804F069FD034619462046B2
:101B800004F0E2FC0346184604F034FD03467B6192
:101B90007B6918461C37BD4690BD00BF80B586B036
:101BA00002AF78600023FB607B68B3F5FA7F0ADA46
:101BB000282300931923FA224FF4FA717868FFF76B
:101BC0009FFFF8601AE07B68B3F57A7F0BDA192380
:101BD00000930C234FF4FA724FF47A717868FFF790
:101BE0008FFFF8600AE00C23009303234FF47A720E
:101BF00040F6B8317868FFF783FFF860FB68184655
:101C00001037BD4680BD00BF90B58FB002AF786081
:101C1000012300930823192200214F4801F0ECFC16
:101C20000C2001F0A3FB07F10C0319464B4801F00F
:101C3000D9F901220221494801F05CFA0121474803
:101C400001F082FA0C2001F085FC03461946444855
:101C500002F0DEFC0023FB620023FB7600237B62A4
:101C600000233B620023FB612EE07B6A01337B6231
:101C70003C4B4FF080521A60BFF34F8FBFF36F8F12
:101C800000220221354801F0F9F90346012BECD17D
:101C900001220221314801F0F1F90346012B01D163
:101CA0000123FB7607F10A031A4602212B4801F0B3
:101CB000D3F9034687F82B307B891A463B6A1344D5
:101CC0003B62FB690133FB61FB69B3F57A7FD7DBCC
:101CD0003B6A254AA2FB03239B093B6297F82B3002
:101CE000012B2DD1386A04F0B9FC03461846FFF7E2
:101CF000C7FE0346184604F0B5FC15A3D3E900233C
:101D000003F09CFF03460C461846214604F010FAE7
:101D100003467B617869FFF741FF0246134B1A6067
:101D2000124B1A68FB6A9A420DD0114B18680023B7
:101D300001220421FFF7B6FD0C4B1B68FB6202E099
:101D40000C4802F065FC3220FFF7DEF884E700BFA4
:101D50009A9999999999E93F00C00240004003403F
:101D60006C67000004ED00E0D34D62107C41001070
:101D7000884100108467000080B483B000AF7860B1
:101D80000B46FB701346BB70FA78F9787B681A3102
:101D900053F82110BB78012000FA03F319437B6844
:101DA0001A3243F8221000BF0C37BD4680BC704782
:101DB00080B483B000AF78600B46FB701346BB70F5
:101DC000FB785B017A681344FA78520179680A4417
:101DD0001168BA78012000FA02F20A431A6000BFC3
:101DE0000C37BD4680BC704780B483B000AF7860CC
:101DF0000B46FB701346BB70FB785B017A6813449B
:101E0000FA78520179680A441168BA78012000FA18
:101E100002F2D2430A401A6000BF0C37BD4680BCB4
:101E2000704700BF80B582B000AF786008461146A9
:101E30001A460346FB700B46BB7013467B707B78DB
:101E4000002B06D0BA78FB7819467868FFF7B0FF08
:101E500005E0BA78FB7819467868FFF7C5FF00BF40
:101E60000837BD4680BD00BF80B582B000AF786046
:101E7000084611461A460346FB700B46BB701346D4
:101E80007B707B78BA78F9787868FFF7CBFF00BF72
:101E90000837BD4680BD00BF80B582B002AF01F0FB
:101EA00071F900F09FFF0123009308230222002113
:101EB000084801F0A1FB012300930823032200211D
:101EC000044801F099FB0021002000F073FF00BFDF
:101ED000BD4680BD00C0024080B584B000AF7860D0
:101EE00000F036FD00F0ACFD4FF4FA60FFF70CF89F
:101EF0004FF4FA60FFF708F841F28830FFF704F872
:101F000000F03EFD00F084FD00F02EFD43F6982029
:101F1000FEF7FAFF00F01CFD41F28830FEF7F4FFF7
:101F200000F0FEFC0023FB73FB7B83F00103FB73DB
:101F30004FF4FA60FEF7E8FFF6E700BFFFFFFFFF90
:101F4000F0B583B002AFFFF7A7FF0023009308238B
:101F50000A220121664801F04FFB01230A220121D8
:101F60006448FFF781FF00F0E7FC0023009308239B
:101F7000002201215E4801F03FFB002201215C4864
:101F8000FFF7FAFE0123002201215A48FFF76CFFF8
:101F900000F0EAFC00F054FD002300930823002227
:101FA0000221534801F028FB002202215048FFF78C
:101FB000E3FE0123002202214E48FFF755FF0023D4
:101FC0000093082301220221494801F015FB012258
:101FD00002214748FFF7D0FE012301220221454894
:101FE000FFF742FF00230093082308220121404805
:101FF00001F002FB0123082201213E48FFF734FFD4
:1020000000F02CFC01F09AFA0346184604F0DBF8C5
:1020100035A3D3E9002303F099FE03460C461D4681
:102020002646152001F096FA0346184604F0CBF830
:102030002DA3D3E9002303F089FE03460C46CDE926
:1020400000342A4633462C4802F0E2FA03220021EB
:102050000120FEF763FC0246284B1A60274B1B68E1
:10206000002B06D0254B1868002300220021FEF724
:10207000A5FC002301930123009300238022204923
:102080002048FEF719FE204B0193062300930023FE
:1020900080221E491E48FEF70FFE002301930023F5
:1020A0000093002380221B491B48FEF705FE0023F6
:1020B0000193002300930023802218491848FEF75B
:1020C000FBFD002301930723009300238022154981
:1020D0001548FEF7F1FDFEF73BFF012318460437D4
:1020E000BD46F0BDAFF300800000000080842E41AB
:1020F00000C0024000C00920906700008441001029
:10210000B4670000091C000088410010C06700008F
:1021100025230000CC6700003D260000DC6700009E
:10212000D91E0000E8670000B121000080B483B030
:1021300000AF78607B685B6843F002027B685A609E
:1021400000BF0C37BD4680BC704700BF80B483B071
:1021500000AF78607B689B689BB218460C37BD4621
:1021600080BC704780B483B000AF78600B467B8042
:102170007A887B689A6000BF0C37BD4680BC704788
:1021800080B485B000AFF860B9607A603B60FB68EE
:102190001B6823F0FF02BB681A437B681A433B6845
:1021A0001A43FB681A6000BF1437BD4680BC7047F5
:1021B00080B586B000AF78603E4800F025FE3D480F
:1021C00001F040FB3C493B4801F002FB3B4B002245
:1021D0009A703A4B0D221A70384BC0225A70374B06
:1021E0001B781946354B9B781A46344B5B7831483F
:1021F000FFF7C6FF2F48FFF799FF314800F004FEB4
:102200002F4801F01FFB2C492D4801F0E1FA2B4B20
:102210001B781946294B9B781A46284B5B7828482F
:10222000FFF7AEFF2648FFF781FF00237B61002305
:102230003B614AF6CD311F48FFF794FF1D48FFF779
:1022400085FF0346FB81FB89C3F30C031D4A136022
:102250001C4B1B687A699A4209D01A4B1B687B6138
:10226000194B1868002301220121FFF71BFB4AF6D6
:10227000CD311348FFF776FF1148FFF767FF03469C
:10228000BB81BB89C3F30C03104A13600F4B1B685F
:102290003A699A4209D00D4B1B683B610A4B18689A
:1022A000002301220221FFF7FDFA0520FEF72CFE94
:1022B000BFE700BF00800840400D030094410010BC
:1022C000000003408C410010884100109041001034
:1022D00080B582B000AF054B7B60054A7B681A6011
:1022E00000F014FE00BF0837BD4680BD08ED00E0D9
:1022F0000000000080B483B000AF78607B681B688A
:10230000DBB218460C37BD4680BC704780B483B042
:1023100000AF78607B685B6918460C37BD4680BCAF
:10232000704700BFB0B5B0B004AF78600023C7F805
:10233000AC300023C7F884300023C7F88030002376
:10234000FB670023BB67002387F8AB308F4BC7F8D0
:10235000A4300023C7F8A0304FF000034FF0000472
:10236000C7E926340023C7F89430894B1C68894B91
:102370001D68894B1B68894A12688949096807F1F9
:1023800044000391B96F0291019200932B462246BB
:10239000844901F061FC07F10C0264234FF0FF3126
:1023A0000020FFF725FA0346002B03D1012387F80D
:1023B000AB30E9E0FEF7D8FE034619464FF00002C5
:1023C000D7E92634CB1A62EB0404002C08BF332B68
:1023D0001FD3FEF7C9FE03464FF00004C7E92634B9
:1023E0006E4B1A68D7F8A0309A4212D06B4B1B681C
:1023F000C7F8A030012387F8AB30684B1A6807F1A3
:1024000044030F336849184601F026FC202387F85F
:102410005730614B1A68D7F8A4309A4206D05E4B09
:102420001B68C7F8A430012387F8AB30FB6803F0C2
:102430000103002B12D0574B1B68C7F884300123CF
:1024400087F8AB30534B1A6807F1440305335749FB
:10245000184601F001FC202387F84D30FB6803F09B
:102460000203002B06D04A4B1B68C7F880300123BB
:1024700087F8AB30FB6803F00403002B02D0012384
:1024800087F8AB30464B1A68D7F894309A420FD091
:10249000434B1B68C7F89430012387F8AB30404B9F
:1024A0001A6807F1440328334149184601F0D4FB68
:1024B0000023C7F890301EE03E4AD7F8903013440E
:1024C0001A783D49D7F890300B441B789A420DD0CA
:1024D000394AD7F8903013441978364AD7F89030F3
:1024E00013440A461A70012387F8AB30D7F89030AE
:1024F0000133C7F89030D7F89030062BDCDD97F821
:10250000AB30002B3FF447AF002387F8AB300023FC
:10251000C7F88C300023C7F8883013E0264AD7F874
:10252000883013441B781A46D7F8883002FA03F330
:10253000D7F88C201343C7F88C30D7F88830013394
:10254000C7F88830D7F88830062BE7DD114B1968BB
:102550000F4B1C68114B1B6807F14400D7F88C2007
:102560000192009323460A46144901F075FB07F1D6
:102570004403184600F00AFC114800F007FCD7F8A5
:10258000AC300133C7F8AC3005E700BF22FCFFFFD9
:10259000904100108C410010240000107C4100107C
:1025A00080410010F4670000246800002C680000DF
:1025B0003468000080430010784300103C6800003D
:1025C0005068000080B582B000AF0023FB7121E0AD
:1025D0001748FFF78FFE0346BB71164B1B685A1C4A
:1025E00014490A601449BA79CA54124B1B68312B3A
:1025F00002DD104B00221A60BB790A2B0AD10D4B69
:102600001B680D4A0021D1540A4B00221A60012395
:10261000FB7107E00648FFF779FE034603F001036C
:10262000002BD5D1FB7918460837BD4680BD00BFC9
:1026300000C00040CC4100109841001090B58BB014
:1026400000AF78604FF000034FF00004C7E9083492
:10265000FFF7B8FF0346002B00F0D2806A496B48B1
:1026600002F00AFF0346002B02D100F001FAC7E096
:102670006749664802F000FF0346002B09D100F0CD
:102680004FF9FEF771FD03464FF00004C7E9083427
:10269000B6E060495D4802F0EFFE0346002B09D129
:1026A00000F04AF9FEF760FD03464FF00004C7E969
:1026B0000834A5E05849554802F025FF0346002B91
:1026C00007D0FEF751FD03464FF00004C7E9083478
:1026D00096E052494D4802F016FF0346002B02D007
:1026E00000F036F98CE04E49484802F00CFF0346F2
:1026F000002B02D000F038F982E04A49434802F04A
:1027000002FF0346002B02D000F052F978E0464960
:102710003E4802F0F8FE0346002B02D000F054F9C8
:102720006EE04249394802F0EEFE0346002B02D02B
:1027300000F056F964E03E49344802F0E4FE0346F6
:10274000002B02D000F058F95AE03A492F4802F025
:10275000DAFE0346002B02D000F0E2F850E03649E2
:102760002A4802F0D0FE0346002B02D000F0E4F825
:1027700046E03249254802F0C6FE0346002B02D04F
:1027800000F0FEF83CE02E49204802F0BCFE034673
:10279000002B02D000F000F932E02A491B4802F079
:1027A000B2FE0346002B06D12749184802F0ABFEC3
:1027B0000346002B14D0254800F0E8FA72B600F06A
:1027C000EDFE0346FB77FA7F07F108032049184620
:1027D00001F042FA07F10803184600F0D7FA0FE0BB
:1027E0001C490A4802F08FFE0346002B06D11A4905
:1027F000064802F088FE0346002B01D000F02EF8B8
:102800006420FEF781FB23E7546800009841001024
:102810005C680000646800006C680000706800007C
:1028200078680000806800008868000090680000F8
:1028300098680000A0680000AC680000B86800005C
:10284000C0680000CC680000D4680000DC680000AC
:10285000EC680000006900000869000080B58AB0DB
:1028600000AF3846064B074A074901F0F5F93B46E9
:10287000184600F08BFA00BF2837BD4680BD00BF68
:10288000106900001C6900002869000080B483B052
:1028900000AF7860084611461A460346FB700B46A7
:1028A000BB7013467B707B78002B0FD0FB785B01ED
:1028B0007A681344FA78520179680A449169BA78BF
:1028C000012000FA02F20A439A610EE0FB785B01F4
:1028D0007A681344FA78520179680A44D169BA785F
:1028E000012000FA02F20A43DA6100BF0C37BD464C
:1028F00080BC704780B584B000AFF860B960114605
:102900001A460B46FB711346BB71BB68D9B2BB7943
:10291000FA79F868FFF7BAFF00BF1037BD4680BDEF
:1029200080B500AF00230A2201210248FFF7E2FF31
:1029300000BF80BD00C0092080B500AF01230A227E
:1029400001210248FFF7D6FF00BF80BD00C009206B
:1029500080B500AF0123002201210248FFF7CAFF22
:1029600000BF80BD00C0092080B500AF0023002259
:1029700001210248FFF7BEFF00BF80BD00C0092053
:1029800080B500AF0123082201210248FFF7B2FF02
:1029900000BF80BD00C0092080B500AF0023082221
:1029A00001210248FFF7A6FF00BF80BD00C009203B
:1029B00080B500AF0123092201210248FFF79AFFE9
:1029C00000BF80BD00C0092080B500AF00230922F0
:1029D00001210248FFF78EFF00BF80BD00C0092023
:1029E00080B500AF0023012201210248FFF782FFDA
:1029F00000BF80BD00C0092080B500AF01230122C7
:102A000001210248FFF776FF00BF80BD00C009200A
:102A100080B500AF0023002202210848FFF76AFFBB
:102A20000023012202210548FFF764FF0123082249
:102A300001210248FFF75EFF00BF80BD00C00920F2
:102A400080B500AF0123002202210848FFF752FFA2
:102A50000123012202210548FFF74CFF0023082231
:102A600001210248FFF746FF00BF80BD00C00920DA
:102A700080B500AF0023162201211248FFF73AFF6C
:102A80000123172201210F48FFF734FF4FF47A701A
:102A9000FEF73AFA0023172201210A48FFF72AFF1E
:102AA0000123162201210748FFF724FF43F698204F
:102AB000FEF72AFA0123172201210248FFF71AFF25
:102AC00000BF80BD00C0092080B582B000AF786033
:102AD0000F2000F04BFC00BF0837BD4680BD00BF93
:102AE00080B582B000AF78600F2000F03FFC00BFDF
:102AF0000837BD4680BD00BF80B483B000AF7860AA
:102B0000084611461A460346FB700B46BB70134637
:102B10007B707B78002B0FD0FB785B017A681344C5
:102B2000FA78520179680A449169BA78012000FA6A
:102B300002F20A439A610EE0FB785B017A68134463
:102B4000FA78520179680A44D169BA78012000FA0A
:102B500002F20A43DA6100BF0C37BD4680BC704701
:102B600080B584B000AFF860B96011461A460B46D4
:102B7000FB711346BB71BB68D9B2BB79FA79F868AF
:102B8000FFF7BAFF00BF1037BD4680BD80B483B0E9
:102B900000AF78600B46FB701346BB70FB785B019F
:102BA0007A681344FA78520179680A441168BA784D
:102BB000012000FA02F20A431A6000BF0C37BD463A
:102BC00080BC704780B483B000AF78600B46FB7068
:102BD0001346BB70FB785B017A681344FA785201A4
:102BE00079680A441168BA78012000FA02F2D243E7
:102BF0000A401A6000BF0C37BD4680BC704700BF5A
:102C000080B582B000AF7860084611461A46034688
:102C1000FB700B46BB7013467B707B78002B06D095
:102C2000BA78FB7819467868FFF7B0FF05E0BA7804
:102C3000FB7819467868FFF7C5FF00BF0837BD4627
:102C400080BD00BF80B582B000AF786008461146F5
:102C50001A460346FB700B46BB7013467B707B78AD
:102C6000BA78F9787868FFF7CBFF00BF0837BD4620
:102C700080BD00BF80B483B000AF78600B46FB70AE
:102C8000FA787B681A6000BF0C37BD4680BC70477D
:102C900080B483B000AF786039607B683A68DA60EE
:102CA00000BF0C37BD4680BC704700BF80B483B006
:102CB00000AF78607B685B6918460C37BD4680BC06
:102CC000704700BF80B586B000AFF860B9607A6029
:102CD00000237B6109E0BA687B6913441B781846BE
:102CE00000F03AF87B6901337B617B687A699A422C
:102CF000F1D37B6818461837BD4680BD80B500AF5C
:102D00000123162200210248FFF79CFF00BF80BD6F
:102D100000C0092080B483B000AF786000BF0C37DA
:102D2000BD4680BC704700BF80B500AF0948FFF7C3
:102D3000F1FF084800F0C2FE4FF4E131054800F011
:102D400011FF03210348FFF7A3FF024800F0F2FE42
:102D500000BF80BD00C0004080B582B000AF034618
:102D6000FB7100BF0848FFF7A1FF034603F02003F3
:102D7000002BF7D0FB7919460348FFF77BFF00BF14
:102D80000837BD4680BD00BF00C0004080B582B09E
:102D900000AF786006E07B685A1C7A601B781846A2
:102DA000FFF7DAFF7B681B78002BF4D100BF0837F0
:102DB000BD4680BD80B582B000AF03460A46FB71B8
:102DC0001346BB71FB79002B05D1BB79162200217C
:102DD0000348FFF7C5FE00BF0837BD4680BD00BFF2
:102DE00000C0092080B500AFFFF79EFF0448FFF741
:102DF00077FE0448FFF768FEFFF780FF00BF80BD45
:102E000000C0092000C0024080B584B002AF7860E5
:102E10007B68244A934220D102230093082307228F
:102E20000021214800F0E8FB02230093082306223A
:102E300000211D4800F0E0FB022300930823082234
:102E40000021194800F0D8FB02230093082309222F
:102E50000021154800F0D0FB1FE002230093082357
:102E60000F220021104800F0C7FB02230093082323
:102E7000102200210C4800F0BFFB0223009308231E
:102E800011220021084800F0B7FB02230093082319
:102E900012220021044800F0AFFB00BF0837BD46F6
:102EA00080BD00BF0000034000C0024080B485B078
:102EB00000AF0346FB71084B1B68C3F30B03FB60B9
:102EC000054AFB791B031946FB680B43136000BFDF
:102ED0001437BD4680BC704700C00F4080B500AFBE
:102EE00017220349034800F0D1FB00BF80BD00BF9B
:102EF0004869000000C0024080B500AF00F008FD46
:102F00000420FFF7D3FF00BF80BD00BF80B500AF36
:102F1000FFF7E4FFFFF7F0FF00BF80BD80B400AF14
:102F200041231846BD4680BC704700BF80B588B0BD
:102F300000AFF8607A601A460B46FB721346BB720C
:102F40000C2000F007FBF861FFF7E8FF03461A4684
:102F50007B6803FB02F3BB61FB695A00BB691A443F
:102F6000BB695B00B2FBF3F3DBB2013BFB75FB7D9E
:102F700018462037BD4680BD80B485B000AF78606C
:102F80000B46FB707B681B6823F0E063FB60FB78FB
:102F90001A06FB681A437B681A6000BF1437BD46E7
:102FA00080BC704780B487B000AFF8600B467A6091
:102FB000FB72FA7AFB68043253F822307B617B693A
:102FC000002B01DB002308E07B691B099BB2C3F3E4
:102FD0000B039AB27B681A80012318461C37BD4642
:102FE00080BC704780B586B000AF78603960002340
:102FF0007B610C2000F0BAF97B684FF470625A6371
:103000007B680022DA607B6943F400137B613B68D4
:10301000104A1A603B6800221A7100233B613B682A
:1030200000225A713B681A683B69DBB2002178685C
:10303000FFF77CFF0346FB73FB7B1B021A467B6991
:1030400013437B617B687A691A6000BF1837BD46FD
:1030500080BD00BF400D030080B584B000AFF860B4
:103060000B467A60FB72FB7A7A681946F868FFF7BC
:1030700099FF034618461037BD4680BD80B485B021
:1030800000AFF8600B467A60FB727B68012B13D0AF
:10309000012B04D3022B1FD000BF002324E0FB68C8
:1030A0001A6BFB7A22FA03F303F00103002B14BF1F
:1030B00001230023DBB217E0FB7A0833FB72FB68C5
:1030C0001A6BFB7A22FA03F303F00103002B14BFFF
:1030D00001230023DBB207E0FB681B6B1B0C002BFA
:1030E00014BF01230023DBB218461437BD4680BC51
:1030F000704700BF80B483B000AF78600B46FB70B0
:103100001346BB70BB78012B09D17B681A68FB782A
:10311000012101FA03F31A437B681A600FE07B6810
:103120001B6823F0E0627B681A607B681A68FB7892
:10313000012101FA03F3DB431A407B681A6000BFE8
:103140000C37BD4680BC704780B582B000AF786058
:103150000B46FB7000217868FFF70EFFFB78002B11
:1031600006D17B681B6823F480327B681A6005E017
:103170007B681B6843F480327B681A6000BF0837A5
:10318000BD4680BD80B500AF00F0D8F90246024BC5
:103190001A6000BF80BD00BF8843001080B400AF3C
:1031A000064BD3F8883003F08073002B14BF012343
:1031B0000023DBB21846BD4680BC704700C00F40FC
:1031C00080B400AF064BD3F8883003F00073002BB7
:1031D00014BF01230023DBB21846BD4680BC7047F4
:1031E00000C00F4080B483B000AF0346FB71094AB2
:1031F000FB795B0113448C33AA221A60054AFB79E0
:103200005B0113448C3355221A6000BF0C37BD4656
:1032100080BC704700C00F4080B400AF054BD3F8AE
:103220000C31DBB203F00303DBB21846BD4680BCB1
:10323000704700BF00C00F4080B400AF024B1B6856
:103240001846BD4680BC70474069000080B400AF9E
:10325000024B1846BD4680BC704700BF00093D00C8
:1032600080B400AF024B1B681846BD4680BC704757
:103270004469000080B500AF00F008F90346184625
:1032800080BD00BF80B584B000AF03463960FB71DC
:103290000C4AFB7904335B0113441B68FB60FA683A
:1032A0003B681343FB60074AFB7904335B0113441B
:1032B000FA681A60FB791846FFF794FF00BF1037D1
:1032C000BD4680BD00C00F4080B584B000AF03464E
:1032D0003960FB710D4AFB7904335B0113441B68B1
:1032E000FB603B68DB43FA681340FB60074AFB79ED
:1032F00004335B011344FA681A60FB791846FFF740
:1033000071FF00BF1037BD4680BD00BF00C00F4039
:1033100080B586B000AF0346B9607A60FB73FB7B73
:10332000002B05D17B681A04BB6813437B6104E062
:103330007B685A01BB6813437B610B4AFB7B0433F8
:103340005B01134404337A691A60074AFB7B043338
:103350005B01134401221A60FB7B1846FFF742FF12
:1033600000BF1837BD4680BD00C00F4080B485B097
:1033700000AF0346FB71FB79FB600849074BD3F8AC
:10338000C4300120FA6800FA02F21343C1F8C430D5
:1033900000BF1437BD4680BC704700BF00C00F405F
:1033A00080B582B000AFFFF70BFF0346002B02D0C1
:1033B0000123FB7101E00023FB71FB7918460837FC
:1033C000BD4680BD80B483B000AF7860044A7B689E
:1033D000C2F8043100BF0C37BD4680BC704700BF47
:1033E00000C00F4080B400AF044BD3F80431DBB20F
:1033F00001331846BD4680BC704700BF00C00F4077
:1034000080B487B000AF0346FB7101237B61FB7979
:103410005B003B613B6903F01F03FB603B695B0999
:103420003B61194A3B696A3352F823307B617A6900
:10343000FB6822FA03F303F003037B617B69002B33
:1034400002D104237B6119E07B69012B02D10123A6
:103450007B6113E07B69022B02D102237B610DE0CB
:10346000FB790D2B05D0FB790E2B02D0FB790F2BAE
:1034700002D106237B6101E008237B617B6918464A
:103480001C37BD4680BC704700C00F4080B500AF00
:10349000FFF7C2FE0346012B07D0022B09D0002BF9
:1034A0000BD1FFF7D3FE034608E0FFF7C5FE034646
:1034B00004E0FFF7D5FE034600E00023184680BD78
:1034C00080B584B000AF0023FB60FFF767FE0346C2
:1034D000002B18D00E4BD3F88430C3F30E03013306
:1034E000BB600B4BD3F884301B0CDBB201337B6029
:1034F000FFF7C0FE0246BB6803FB02F35A007B687D
:10350000B2FBF3F3FB60FB6818461037BD4680BD85
:1035100000C00F4080B500AFFFF742FF0346002B0D
:1035200005D0012B07D1FFF7CBFF034604E0FFF7DF
:10353000ADFF034600E00023184680BD98B500AFFC
:10354000FFF7E8FF0446FFF74DFF0346B4FBF3F334
:10355000184698BD90B583B000AF0346FB71FFF7E6
:10356000EDFF0446FB791846FFF74AFF0346B4FB1C
:10357000F3F318460C37BD4690BD00BF80B582B04E
:1035800000AF78603960044B39687868984700BFAD
:103590000837BD4680BD00BFF11FFF1F80B58AB050
:1035A00000AF39237B613A1D07F114031146184619
:1035B000FFF7E4FF7B68DBB218462837BD4680BDC5
:1035C00080B586B002AFF8607B600B46FB72134695
:1035D000BB727B6898087B68DBB203F00303DBB245
:1035E000BA7AF97A00930346F86800F005F800BF4C
:1035F0001037BD4680BD00BF80B487B000AFF86013
:103600007B600B46FB721346BB72BB7A03F00F0361
:10361000DBB25B00FB75FB7A5B00DAB2BB7A1B099D
:10362000DBB21344BB75BA7DFB6853F82220FB7DE7
:10363000032101FA03F3DB4313403B61BA7D97F8A2
:103640002010FB7D01FA03F319463B691943FB681F
:1036500043F82210BA7DFB68103253F82220FB7D1C
:10366000032101FA03F3DB4313403B61BA7DFB7D89
:10367000796899403B691943FB68103243F822107E
:1036800000BF1C37BD4680BC704700BF80B586B008
:1036900000AFF860B9607A6000237B611FE07B694E
:1036A0009B00BA6813441B78C3F30203DBB21946CC
:1036B0007B699B00BA6813441B78C3F3C403DBB275
:1036C00018467B699B00BA6813441B68C3F3172331
:1036D0000246F868FFF774FF7B6901337B617A6902
:1036E0007B689A42DBD300BF1837BD4680BD00BF60
:1036F00080B485B000AFF860B9607A603B60FB6869
:103700001B6823F0FF02BB681A437B681A433B68BF
:103710001A43FB681A6000BF1437BD4680BC70476F
:1037200080B483B000AF786039607B685B6823F059
:1037300004023B681A437B685A6000BF0C37BD46E1
:1037400080BC704780B485B000AF78607B68074A62
:10375000934202D10A23FB7301E01523FB73FB7B29
:1037600018461437BD4680BC704700BF00000340B8
:1037700080B485B000AF78607B68074A934202D17D
:103780001523FB7301E00A23FB73FB7B18461437F8
:10379000BD4680BC704700BF0080084080B487B041
:1037A00000AFF860B9607A60FB681B6823F47F4360
:1037B0007B61BB681B029AB27B691A43FB681A6083
:1037C000FB687A681A6100BF1C37BD4680BC704731
:1037D00080B586B000AF786039607868FFF7C8FFC1
:1037E00003461846FFF7B6FEB86000237B614FF032
:1037F000FF333B610223FB6017E07B690133FA680A
:1038000002FB03F3BA68B2FBF3F33B613A693B682E
:103810009A420AD97B6901337B617B69FF2B04D90A
:1038200000237B61FB680233FB603A693B689A4284
:10383000E3D8FA6879697868FFF7B0FF00BF1837F6
:10384000BD4680BD80B582B000AF78607868FFF774
:1038500079FF03461846FFF789FD00217868FFF7D6
:103860005FFF0023002207217868FFF741FF04492A
:103870007868FFF7ADFF00BF0837BD4680BD00BFC9
:10388000A086010080B400AF064BD3F8883003F067
:103890008073002B14BF01230023DBB21846BD4602
:1038A00080BC704700C00F4080B400AF064BD3F817
:1038B000883003F08063002B14BF01230023DBB2A8
:1038C0001846BD4680BC704700C00F4080B400AFB2
:1038D000064BD3F8883003F00073002B14BF01238C
:1038E0000023DBB21846BD4680BC704700C00F40C5
:1038F00080B483B000AF0346FB71044AFB79C2F881
:103900000C3100BF0C37BD4680BC704700C00F4073
:1039100080B500AFFFF7DAFF0346002B03D002218A
:103920000020FFF7D1FCFFF7ADFF0346002B03D0CB
:1039300001210020FFF7C8FC0020FFF743FD002015
:10394000FFF7D6FF002224210020FFF7E1FC012130
:103950000020FFF797FC0320FFF734FD00BFFFF7BF
:10396000A3FF034683F00103DBB2002BF7D1022152
:103970000020FFF787FC00BF80BD00BF80B483B08C
:1039800000AF786039607B683A689A6000BF0C3796
:10399000BD4680BC704700BF80B483B000AF786084
:1039A00039607B683A68DA6000BF0C37BD4680BC7E
:1039B000704700BF80B483B000AF78607B68DB687D
:1039C00043F080027B68DA6000BF0C37BD4680BCE4
:1039D000704700BF80B483B000AF78607B68DB685D
:1039E00023F080027B68DA6000BF0C37BD4680BCE4
:1039F000704700BF80B483B000AF78600B46FB70A7
:103A00001346BB70FA787B681A60BA787B685A6094
:103A100000BF0C37BD4680BC704700BF80B485B086
:103A200000AF78607B680E4A934202D10423FB7397
:103A30000FE07B680B4A934202D11823FB7308E026
:103A40007B68094A934202D11923FB7301E00323E7
:103A5000FB73FB7B18461437BD4680BC704700BF24
:103A6000000001400080094000C0094080B485B0DA
:103A700000AF78607B680E4A934202D10423FB7347
:103A80000FE07B680B4A934202D11823FB7308E0D6
:103A90007B68094A934202D11923FB7301E0032397
:103AA000FB73FB7B18461437BD4680BC704700BFD4
:103AB000000001400080094000C0094080B584B08A
:103AC00000AF78607868FFF7A9FF03461846FFF754
:103AD0004DFC07217868FFF751FF786800F036F851
:103AE0007B6800225A607B680022DA607B680022D3
:103AF0001A627B680022DA647B6800225A657B6860
:103B000000221A657B680A4A934205D17B6800222D
:103B10001A617B689B69FB6003217868FFF73CFFB3
:103B20007B6810229A6200BF1037BD4680BD00BF7F
:103B30000000014080B483B000AF78607B688022D1
:103B40001A6300BF0C37BD4680BC704780B483B099
:103B500000AF78607B6800221A6300BF0C37BD4657
:103B600080BC704780B586B000AF786039607868F7
:103B7000FFF77CFF03461846FFF7ECFC78613B68D3
:103B80001B017A69B2FBF3F33B613B691B0AFB60E3
:103B9000FB681B023A69D31ABB607868FFF70AFF1B
:103BA000BB68DBB2FA68D2B219467868FFF722FF29
:103BB0007868FFF70FFF7A693B69B2FBF3F31846A9
:103BC0001837BD4680BD00BF08B50022114610461B
:103BD00000F048FDBDE80840FEF7B2B902F07BBD39
:103BE00002F093BD10B5425C4318342A01DC00207A
:103BF00010BD352A06D1194611F8012F302AFBD005
:103C0000002AF4D01A46302412F8011D392901D1B6
:103C10001470F9E7013111700278302AE7D01A1ACE
:103C2000002A03DB13F801299A70F8E7012010BD80
:103C300030B58C1F0A25A1420CD090FBF5F3C3EBE5
:103C40004312C3EB8202303000EB420001F801095D
:103C50001846F0E730BDFFFF0EB430B5054690B012
:103C600013AB53F8044B2822002106A80593FFF755
:103C7000B7FF0A2309936FF000430893104B009499
:103C80000293059B4FF0FF32019306A86FF00043AB
:103C9000069500F039FD089B0446013B002B089374
:103CA00003DB069B00221A7003E006A9002001F046
:103CB0005CFC204610B0BDE8304003B0704700BF48
:103CC000C93C0000FFFFFFFF2DE9F04F144647F607
:103CD000F0724E689DB00693C6F30F4323F00F03B6
:103CE0005B040F685B0C93420590DDF89CB009976C
:103CF000079627D10023E370C6F313033B434FF02D
:103D00006E0315D169226370002E4FF06603227096
:103D1000A37001DAA64B10E0069B980706D4A54ACB
:103D200013F0040FA44B08BF134606E0A34B04E0B6
:103D300023706122A3709F4B6270269A0320136048
:103D400000F033BC059B23F02003412B00F03982A7
:103D5000002200233846314602F04FFA38B106F10E
:103D60000043099A1E46012317460A9300E00A9071
:103D7000002200233846314602F029FA002840F09C
:103D8000028240F22D150FAA3846314601F0EEFCB2
:103D90000F9ACDE910015543A5F5AB531C3B4FF4E9
:103DA0007A7593FBF5F50020AA1A854901F00CFD00
:103DB000002DCDE91A0106DA77A3D3E900236E427C
:103DC000CDE9162306E07F4B4FF00002CDE9162324
:103DD00016D02E46F10709D4DDE91601DDE91623D8
:103DE00001F02CFF7610CDE91601F3E7DDE91601AD
:103DF000DDE91A2301F022FF012ECDE91A01EBD1F2
:103E0000DDE91001DDE91A2301F0A0FFCDE912017F
:103E1000DDE9120162A3D3E9002302F0EEF988B1D3
:103E2000DDE912010022684B01F008FFCDE9120123
:103E3000DDE91A010022644B01F088FF013DCDE964
:103E40001A01E5E7DDE9120157A3D3E9002302F0E7
:103E500028FA88B1DDE9120100225B4B01F076FF00
:103E6000CDE91201DDE91A010022574B01F0E6FE0F
:103E70000135CDE91A01E5E7DDE9120102F058F953
:103E80006B4213EA250338BF2B4682460B930F9AE9
:103E90005046AE1A02F08FF9324601F095FC00222E
:103EA0000023002DCDE91201CDE914232FDA3AA326
:103EB000D3E90023CDE9162300220023CDE91823FE
:103EC000DDE91689DDE916014FF000084246DDE91B
:103ED00018674B4601F0D6FF32463B4602F0A2F887
:103EE000CDE91801CDE91689DDE916010022354B2F
:103EF00001F0A4FE02460B460020314901F0C2FF4A
:103F00000022304B01F022FFCDE918010CE02D4BCF
:103F10004FF00002CDE916234FF000024FF00003EE
:103F2000CDE9182300F094800B9B0893089BDA07D7
:103F30004CD4DDE91623DDE91889DDE91867104660
:103F4000194602F06FF842464B4602F06BF83246D3
:103F50003B4601F073FECDE91801DDE91601DDE90C
:103F6000162301F06BFECDE91601DDE91689DDE9C6
:103F700016014FF000084246DDE918674B4601F094
:103F800081FF3B46324602F04DF8089BCDE918010F
:103F90005B10CDE91689C8E79A9999999999C93F13
:103FA00000000000006AF8400000000080842E41FC
:103FB000D6690000246A0000A6690000A469000018
:103FC0000000F03F0000144000002440DDE912230F
:103FD000DDE91889CDE90C23DDE91601DDE91823B7
:103FE00002F020F8DDE9146732463B4601F026FE78
:103FF000424606460F46DDE90C014B4601F01EFE27
:1040000002460B463046394602F00CF8CDE9140161
:10401000DDE91601DDE9122301F010FECDE9120100
:10402000DDE91289DDE912014FF000084246DDE9C1
:1040300014674B4601F026FF3B46324601F0F2FF83
:10404000089BCDE91401012BCDE912897FF471AFF2
:10405000DDE91201DDE9102302F0F9F810B90AF1E7
:10406000FF3A14E7DDE91223DDE9100101F00AFF50
:10407000CDE91001DDE91423DDE9100101F002FFB3
:10408000CDE91001DDE91A23DDE9100101F05EFE42
:10409000A5A3D3E90023CDE91001DDE9100101F06A
:1040A000CDFDCDE91001DDE9100102F041F8DDE9B7
:1040B0001067804602F07FF802460B4630463946CC
:1040C00001F0E0FE98A3D3E9002301F0B7FDCDE9AC
:1040D0001001DDE9100102F02BF80646002E06DA89
:1040E00006F5742606F5107608F1FF38F6E7904AD3
:1040F00096428F4B06DDA6F57426A6F5107608F1DC
:104100000108F5E7B8F1000F06DA08F5742808F59C
:1041100010780AF1FF3AF5E7984506DDA8F574280E
:10412000A8F510780AF1010AF6E7824B9A4511DCEE
:10413000013398FBF3F296FBF3F37F480A2100FB6F
:10414000028800FB036601FB0A2A01FB08384E4384
:10415000013D1DE0764B9A451ADD0A229AFBF2F1E9
:104160006FF0090303FB01AA7448013500FB0A8ABA
:104170009AFBF2F803FB08A300FB0366053696FBE7
:10418000F2F68A4604E00026B046B2466FF0040517
:104190002146302701F8067B5046FFF749FD04F120
:1041A0000C014046FFF744FD04F112013046FFF7D1
:1041B0003FFD002323750A9B0535E77443EA850517
:1041C00000E00025EB0701D55D4B0AE0069B9F0749
:1041D00006D45C4A13F0040F5B4B08BF134600E0A3
:1041E0005A4B269A25F001051360042395FBF3F53D
:1041F000059BDBF80000612B10D006DC452B6DD051
:10420000472B4DD0412B49D108E0059B662B00F090
:104210000581672B44D0652B40D15FE007990022D0
:10422000C1F3130309990A430799C1F30A5515B15C
:10423000A5F2FF3104E052EA0301454908BF00211D
:1042400088B9069E36070ED4002D0B464148059DC1
:1042500041490CBF30223122612D08BF0146204662
:10426000FFF7FAFC10E0002DCDE900230291034690
:104270003A493B48059D0CBF30223122612D08BFD1
:1042800001462046FFF7E8FC2D4A2E4B079933EAFA
:10429000210328BF1346269A136086E167230593FE
:1042A000069B002843F400630693DCBF0123CBF890
:1042B0000030DBF8001020461129D4BF0131122153
:1042C000FFF790FCDBF8003005449D42C0F29F8070
:1042D000013BCBF80030059B023B0593DBF8003037
:1042E000112B05DD299A113B13601123CBF8003007
:1042F000069BDBF8006013F4006706F1020604D1A8
:1043000031462046FFF76EFC054463782370DBF8E6
:10431000003023B940F60803069A134013B32E2346
:10432000637020E0AFF300800000000080842E4125
:104330003F420F009F8601006079FEFF40420F0060
:10434000D6690000246A0000A6690000A469000084
:1043500001FCFFFFA8690000B0690000C769000008
:10436000B86900000126299B1B68002BC2BF3E23B1
:10437000A355013677B1069B1F070BD4A219161B54
:1043800012F8013D302BFAD03E2BF8D02E2B08BF6F
:1043900006F1FF369DF81430002DA355B8BF6D42CD
:1043A00006F1020306F10102B5BF2D212B211E46A5
:1043B0001E46B5F57A7FA1540ADB4FF47A7295FB5D
:1043C000F2F202F13001E15479495E1C01FB025521
:1043D000632D0ADD642395FBF3F303F13002A2554C
:1043E0006FF0630202FB035501360A2395FBF3F3DA
:1043F000DBB203F13002A255C3EB4312C3EB8203DD
:104400003035344405EB43036370B01CCDE02A1D06
:10441000FFF65EAF6A1C9B1ACBF80030069A002D9F
:10442000DBF8003002F400674CDAC5F100085A1CD2
:10443000904509DD302323702E236370DBF80030B4
:10444000299A0226136038E02B449E1C122EC1BF0D
:10445000299A113B136013265FB931462046FFF7B6
:10446000C1FB30B17FEA050806F1010601D163788E
:104470000DE0B8F1010F04EB06030CD11A1B002A62
:1044800003DD13F801299A70F8E701363023237011
:104490002E23637011E01A1B002A03DD13F8012993
:1044A000DA70F8E7302323702E236370289A3C23B8
:1044B000A37008F1FF3302361360299B1B68002BA1
:1044C00025DC59E005EB030808F10206122E3DDD5C
:1044D0003FB913212046FFF785FB10B101351426A3
:1044E00000E01326721E9542234614DA13F8012FBA
:1044F00003F8012C1A1B9542F8DA63192E225A7020
:10450000DBF800301D44299B113D1D60A5B33E23FF
:10451000A355013630E013F8011F03F8011C191BE5
:104520008A42F8DCA3193C2203F8012CAD1B289B1E
:104530002E2202351D60A255DBF80020731CD2B17B
:10454000299902360A603E22E25415E03FB931460D
:104550002046FFF747FB10B1013508F1030623465B
:1045600013F8012F03F8012C1A1B9542F8DA2544A1
:104570002E236B7000E01E4677B1069B180713D4FC
:104580002644301B16F8013D302BFAD03E2BF8D0D4
:104590002E2B0AD1013808E0DBF8003023B9069B46
:1045A000190701D4701E00E030461DB0BDE8F08F41
:1045B00018FCFFFFF0B504460D461F4616468FB0A7
:1045C0002822002104A8FFF70BFB0A2307936FF0B2
:1045D000004306930D4B0494002402936A1E234665
:1045E0008DE8C00004A800F08FF8069B0546013B4B
:1045F000A342069302DB049B1C7003E004A920463F
:1046000000F0B3FF28460FB0F0BD00BFC93C00006A
:104610000FB473B506AB53F8046B012132466846FC
:104620000193FFF7C7FF041E13DD651C284601F048
:1046300025F9009068B1019B32462946FFF7BAFF81
:10464000074B22460099D86BFEF73CFB009801F01F
:1046500079F9204602B0BDE8704004B0704700BF51
:10466000D441001070B54FF4A07200212048FFF72C
:10467000B7FAC02001F07EF91E4CC02200211C4D6B
:1046800020602826FFF7ACFA20680023182406FBD8
:10469000035204FB03010133082B5162F7D1144A82
:1046A0001549002001F001F84FF480534FF4806267
:1046B00000210F4800F0BCFE104A1149012000F013
:1046C000F4FF4FF480534FF4806200210B4800F058
:1046D000AFFE0C4A0A49022000F0E7FFBDE8704037
:1046E0004FF480534FF480620021064800F0A0BED2
:1046F000D4410010D0410010D8690000FC410010E6
:10470000DA690000244200102DE9F04F0546B1B0EF
:10471000CDE90A23DDF8EC8000223A9B0492187858
:1047200003F1010A002800F07E86252801D100242B
:104730001FE0049BDDE90A671946DA175C1C134683
:10474000B142BB4180F26586AB68013B002BAB6098
:1047500005DB2B685A1C2A60187000F05ABE2946E7
:1047600000F003FF00F055BE09D92D2F0ED144F003
:10477000010453461AF8017B2B2FF5D10BE0202FB3
:104780000CD0232F0DD144F00804F2E7302F08D1CC
:1047900044F40074EDE744F00204EAE744F0040452
:1047A000E7E72A2F02D000260A2211E0D8F800609D
:1047B00008F10402002EBCBF764284F0010403F12C
:1047C000020A5F78904608E002FB06361AF8017B81
:1047D000A7F13003D9B20929F6D926EAE6732E2FBC
:1047E0000E931DD19AF800702A2F08D1D8F80090A6
:1047F0009AF8017008F104080AF1020A0AE00AF1C5
:10480000010A4FF000090A22A7F13003D9B20929A1
:1048100040F20386B9F1000F02DB44F0100401E01E
:104820004FF000096C2F0ED19AF800706C2F03BF67
:104830009AF8017044F060040AF1020A0AF1010AD0
:1048400018BF44F020044C2F01D0712F04D19AF8E6
:10485000007044F060041CE0682F0FD19AF80070DB
:10486000682F03BF9AF8017044F480740AF1020AB9
:104870000AF1010A18BF44F080040CE06A2F02D14B
:1048800044F0400403E07A2F01D0742F03D19AF84A
:1048900000700AF1010A672F1CDC652F80F2B282DA
:1048A000472F00F0AF8209DC412F00F0A582452F91
:1048B00000F0A882002F00F0BF8027E0612F00F0F9
:1048C0009B8203DC582F00F0A8811FE0632F17D0D4
:1048D000642F09E0702F00F0F68108DC6E2F00F0E5
:1048E000B18000F3FB81692F00F04F820EE0752F3D
:1048F00000F01882782F00F0BB81732F06D1C4E03E
:1049000008F104030793D8F8007001E0CDF81C808B
:104910000E9B14F0010603F1FF3308933CD10E9A6D
:1049200014F4007FA2F10204049A18BF3023104649
:104930004FEAE2710A460146CDE90E1208BF202374
:104940004FF000084FF00009049AB4EB080142440C
:10495000089120D4DDE90E01DDE90ABC10EB080066
:1049600041EB0901584571EB0C020FDAAA68013AD4
:10497000002AAA6004DB2A68511C2960137005E034
:1049800018462946089300F0F0FD089B18F101082D
:1049900049F10009D8E70492049B1946DA175C1C18
:1049A00013460A46DDE90A0182428B410DDAAB6803
:1049B000013B002BAB6004DB2B685A1C2A601F7084
:1049C00003E02946384600F0D0FD002E00F01D859A
:1049D0002246089B002603F1FF380027E3174FF01B
:1049E0002009C6EB080100291FDBDDE90ABC90198C
:1049F00043EB0701584571EB0C0112DAA968013944
:104A00000029A96005DB2968481C286081F800900E
:104A100007E029462020CDE9042300F0A6FDDDE9CA
:104A20000423013647F10007DBE7089B002BA8BFF2
:104A3000E418234600F0E7BC0AF1FF3ACDF81C80E9
:104A400000F0E4BC08F1040314F0400F0793D8F819
:104A5000003006D0049A1046D117C3E9000100F0D7
:104A6000D5BCA7060DD4E60504D59DF810201A7014
:104A700000F0CCBC240604D5BDF810201A8000F04C
:104A8000C5BC049A1A6000F0C1BC08F10403079386
:104A9000B14AD8F80030002B08BF134618460893D7
:104AA00000F00CFD14F0100F0746089B02D048459B
:104AB000A8BF4F460E9AD61B14F0010208923DD1B2
:104AC000049914F4007F4FEAE17C08466146CDE981
:104AD0000E0114BF302220224FF000084FF00009D1
:104AE000741EC8EB0401002922DBDDE90E01DDE9BB
:104AF0000ABC10EB080041EB0901584571EB0C01B1
:104B000011DAA96801390029A96004DB2968481C69
:104B100028600A7007E0104629461E931C9200F098
:104B200024FD1E9B1C9A18F1010849F10009D8E7E1
:104B3000049A26EAE67632440492A61B049A4FF0C1
:104B400000081046D1170A460146CDE90E124FF073
:104B50000009474523DDDDE90E01DDE90ABC10EB64
:104B6000080041EB0901584571EB0C0212DAAA6802
:104B7000013A002AAA6003EB080205DB2968481CF9
:104B8000286012780A7005E0294610781C9300F01E
:104B9000ECFC1C9B18F1010849F10009D9E7049BC2
:104BA000002FA8BFDB190493089B002B00F02E8474
:104BB000049B4FF000081946DA1713460A464FF0D7
:104BC0000009741E2027C8EB0401002920DBDDE961
:104BD0000ABC12EB080043EB0901584571EB0C01CC
:104BE00011DAA96801390029A96004DB2968481C89
:104BF00028600F7007E029462020CDE9082300F047
:104C0000B4FCDDE9082318F1010849F10009DAE7ED
:104C1000049B002EA8BF9B19F5E3600609D508F197
:104C2000070828F0070808F108030793D8E900BC33
:104C300007E0D8F8002008F10403934607934FF0EB
:104C4000000C210602D51FFA8BFB03E0E20503D519
:104C50000BF0FF0B4FF0000C404914F0080F4048D8
:104C600008BF0846E30640F1EA8024F40074E6E059
:104C7000660609D508F1070828F0070808F10803B7
:104C80000793D8E900BC07E0D8F8002008F1040336
:104C9000934607934FF0000C200602D51FFA8BFBBA
:104CA00003E0E10503D50BF0FF0B4FF0000C2B499F
:104CB00014F0080F2B4808BF0846E20640F1C180F7
:104CC00024F40074BDE0D8F8002008F10403079331
:104CD00093464FF0000C24492248B5E0630609D5FD
:104CE00008F1070828F0070808F108030793D8E936
:104CF00000BC07E0D8F8002008F1040393460793AE
:104D00004FF0000C260602D51FFA8BFB03E0E005EE
:104D100003D50BF0FF0B4FF0000C14F0080F0F49F8
:104D200012485EE0610609D508F1070828F0070877
:104D300008F108030793D8E900BC07E0D8F8002081
:104D400008F10403934607934FF0000C22060FD599
:104D50001FFA8BFB10E000BFDC690000246A000032
:104D6000E3690000E6690000FC690000E9690000F1
:104D7000E30503D50BF0FF0B4FF0000C14F010010E
:104D800061D024F4007400215DE0660609D508F1C5
:104D9000070828F0070808F108030793D8E900235B
:104DA00005E0D8F8002008F104030793D317200684
:104DB00001D512B202E0E10501D552B2D317002AA3
:104DC00073F1000105DAD2F1000B63EB430CB1483B
:104DD0000BE09346A2079C4606D4AF49AF4814F0B7
:104DE000040F08BF084600E0AD4814F010012BD0B6
:104DF00024F40074002127E0E3065CBF44F01004B3
:104E00004FF00D0914F0100F08F1070828F00708FB
:104E100008BF4FF0060914F0200144F4806008F147
:104E2000080318BF002107930446D8E900234FF078
:104E3000000BCDE926234FF0000C084604E0994909
:104E400002E0994900E09448049EDDE90A23921BA0
:104E500063EBE673CDE9082323904FF0FF302490F5
:104E60002590CDF8889000204FF0550328AE83554B
:104E700001302028F8D114F4826F04BF0120229061
:104E8000672F14DC652F80F2BC80472F00F0B980BB
:104E900006DC412F00F0B580452F40F0C280B0E025
:104EA000612F00F0AE80642F11D0582F0CE0702FCE
:104EB00010D006DC692F0AD06F2F40F0B28000219D
:104EC0001DE0752F03D0782F40F0AB8002E0002664
:104ED0000A2728E000205BEA0C03804600F0A3804C
:104EE0000BF00F068F5D28AE87554FEA1B1646EA7A
:104EF0000C764FEA1C17B346BC460130EBE75BEA81
:104F00000C03884600F08F800BF00700303028AE8D
:104F100088554FEADB0040EA4C704FEADC068346D6
:104F2000B4460131EBE75BEA0C03B0467BD05FEAA5
:104F30005C014FEA3B004FEA9B0343EA8C731893F2
:104F40004FEA9C031993DDE9182312184B411946C7
:104F50001046130943EA017310930B091193DDE91D
:104F6000102312184B4119461046130A43EA0163F5
:104F700012930B0A1393DDE9122312184B411946C1
:104F80001046130C43EA014314930B0C1593DDE90F
:104F9000142312184B41104619461A9300231B93F1
:104FA000DDE91A2312184B411946D30843EA41732D
:104FB0000C93CB080D930C9B1BF10600A3FB0789F8
:104FC0000D9B4CF1000107FB0399B0EB080061EB6E
:104FD0000901030943EA017316930B091793DDE9ED
:104FE0001623DDE90C01801859410BF1300200EB6A
:104FF0008003A2EB430228ABF254834601368C4671
:1050000091E725AB039324AB029322AB019323AB2F
:10501000009328AA234626A938463C9EB0478046DE
:1050200001E04FF0000814F480631C930ED00023BD
:105030002293249B002BC4BF03F1FF332293259BB3
:10504000002B09DD229A013B134404E0229BB3EBC1
:10505000080348BF00232293229E239800F02EFAD3
:105060000E9B46449E1B04F001030E9340F2012365
:105070002340361A2BB900220023771E4FF0200957
:105080001DE04FF000094846C11700220023CDE97A
:105090001E013EE0D6690000246A0000A6690000F7
:1050A000A4690000EB690000FC690000DDE908016B
:1050B000824273EB010106DB013243F10003B91AAE
:1050C0000029F3DA13E0A96801390029A96005DB9A
:1050D0002968481C286081F80090EDE729462020C7
:1050E000CDE91E2300F041FADDE91E23E4E726EABC
:1050F000E679C9EB0706C6E7DDE91E0180185941CC
:10510000DDE908BC584571EB0C010DDB013243F1C0
:105110000003239909EB0207481C239091F800E053
:10512000BEF1000FE8D113E0A96801390029A96098
:1051300005DB2968481C286081F800E0E6E729467D
:105140007046CDE9202300F010FADDE92023DDE7E9
:105150000E9B002B35D13846F917CDE91E0114F40A
:10516000007F14BF4FF030094FF0200900220023C8
:10517000741EA11A002920DBDDE91E01DDE908BC4F
:1051800080185941584571EB0C0112DAA9680139B0
:105190000029A96005DB2968481C286081F8009077
:1051A00007E029464846CDE9202300F0DEF9DDE995
:1051B0002023013243F10003DBE726EAE676374499
:1051C000A61B1C9B43B93846F91700220023CDE9E2
:1051D0001C014FF030098FE00024A04540F3DE8031
:1051E00028ABE05C3C2808D03E285FD13846F91750
:1051F00000220023CDE91C013BE03846F917CDE938
:105200001C0100220023249907EB0209013900291F
:10521000249161DBDDE91C01DDE908BC80185941FE
:10522000584571EB0C0113DAA96801390029A9600E
:1052300006DB2968481C28604FF03000087007E042
:1052400029463020CDE91E2300F08FF9DDE91E2329
:10525000013243F10003D6E7DDE91C018018594112
:10526000DDE908BC584571EB0C010ADB013243F162
:105270000003259907EB0209013900292591EBDA92
:105280002AE0A96801390029A96006DB2968481CC1
:1052900028604FF030000870E8E729463020CDE95B
:1052A0001E2300F062F9DDE91E23DFE7DDE908BC1B
:1052B000FB175F4573EB0C0307F101090CDAAB68D0
:1052C000013B002BAB6004DB2B685A1C2A60187072
:1052D00002E0294600F049F901344F467DE7DDE957
:1052E0001C0180185941DDE908BC584571EB0C01DF
:1052F00009DB013243F100032299BC18013900296E
:105300002291ECDA13E0A96801390029A96005DBD4
:105310002968481C286081F80090EAE72946302077
:10532000CDE91E2300F021F9DDE91E23E1E7204647
:10533000E11730ABCDE91C0103EB0807213F002248
:105340000023C2EB0801002922DDDDE91C01DDE9B3
:1053500008BC80185941584571EB0C0112DAA96854
:1053600001390029A96005DB2968481C28603878C4
:10537000087007E029463878CDE91E2300F0F5F8DB
:10538000DDE91E23013207F1FF3743F10003D8E7BF
:10539000B8F1000FACBF04EB0807271C0E9B83B3CA
:1053A0003A464FF000084FF00009741EFB17C8EB97
:1053B0000401002922DBDDE908BC12EB080043EB05
:1053C0000901584571EB0C0113DAA968013900296C
:1053D000A96006DB2968481C28604FF0200008708F
:1053E00007E029462020CDE90E2300F0BEF8DDE9D4
:1053F0000E2318F1010849F10009D8E7002EA8BFD3
:10540000BF19049B3B44049300E00494DDF81C8026
:10541000049C04945346FFF782B902FB09391AF839
:10542000017BFFF7F1B9049831B0BDE8F08F00BF00
:1054300070B5C468A50717D0B2F5007F09D0B2F5E2
:10544000806F03D0B2F5807F0ED102E0416A012364
:1054500003E0064D5E1EAE4206D8224301610160A4
:10546000C361C260002070BD012070BDFEFFFF005F
:105470000028B8BF4042704740EA01039B0730B59F
:1054800010D105460C46214628460B6855F8042BDA
:1054900004349A4206D1A2F1013323EA020313F045
:1054A000803FF0D010F8013B11F8012B934201D05E
:1054B000981A30BD002BF5D1184630BD10B5421CEE
:1054C000830705D010F8013B002BF9D1801A10BDDD
:1054D000034650F8041BA1F1013424EA010414F03E
:1054E000803FF5D011F0FF0F0AD011F47F4F05D0A7
:1054F00011F47F0F14BF0346033302E0023300E0D0
:105500000133981A10BD30B54C1E421E14F8013FED
:1055100043B112F8015F9D42F8D010F8013B002B17
:10552000F2D1184630BDC36810B523F02003C36024
:10553000436A82695B6804469A420FD000F0EAF839
:10554000E368626A23F4405323F0100343F010032E
:10555000E3605368A361236993602360E36823F4E5
:10556000804323F04003E36010BDF8B5CB680646E6
:1055700023F400229F060C46CA6002D50846FFF7B6
:10558000D2FFA168E3684D1C0DDA98050BD443F4F3
:105590009033E3606FF001022368521AA2605A1C34
:1055A00022601E707FE041F28A021A40022A1D46E4
:1055B00005D0002243F08003A260E36051E04AF28C
:1055C00010011940B1F5004F0AD10021204600F02A
:1055D0002FFAE368990602D52046FFF7A4FFE56895
:1055E00045F4903315F4706FE3601CD1606901F0ED
:1055F000ACF850B16A0508D5636A236123600123C2
:10560000E36145F49233E3600DE04FF4805000F025
:10561000B1F94FF48053E268E36145F494331A43DF
:1056200020612060E26013F4106F216825691BD0AF
:10563000636A9B688B422CBFC5EB0301C5EB01017C
:1056400049B9636A6A1C9A602260E269511EA160CE
:10565000DA602E7027E02246284600F0DBF80028AA
:10566000EFD04FF0FF30F8BD4A1C22600E70676A21
:105670002268B9688A422CBFC5EB0201C5EB010163
:10568000E2695B05FA6004D4F0B20A2801D09142C5
:105690000ADB0023BD6022462560A360284600F097
:1056A000B9F80028DDD1F0B2F8BD70B50D46064658
:1056B0001046144600F06EF92B78722B0AD0772B27
:1056C00005D0612B22D1082348F2020204E0042312
:1056D000022201E00023012215F8011F2B2906D028
:1056E000622909D142F0040243F00103F4E742F0D9
:1056F000030243F00203EFE71B07E260666107D590
:1057000002220021204600F093F901E0002070BD44
:10571000204670BD38B50446436A05690168C06813
:105720009B6820F40022E26000F08202022A02D08C
:105730004FF0FF3038BD10F4803016D0994238BF9A
:1057400019468D4209D1636A00209D60E368256097
:1057500023F48033A060E36038BD2246491B28460D
:1057600000F058F80028EED0E2E738BDF8B515464D
:105770000023002206460F4600F029FD20B1002339
:105780002B6000200021F8BDC7F30A53304639468C
:10579000A3F2FE348BB93246C7F31303D70F03F4D9
:1057A000002647EA4303C3F3130352001EB163F319
:1057B0001301104601E0013CF0E740F2FE332C609B
:1057C00063F31E51F8BDFFFF70B50023164600229B
:1057D00004460D4600F0FBFC10B10020002170BD16
:1057E00040F2FE73C5F30A5232449A4220462946DB
:1057F00006DD064B22221A60054BD3E9000170BD7D
:10580000002AEADD62F31E5170BD00BF1443001090
:10581000286A00002DE9F041D5688046EB020E466B
:105820001446576905D5384600F08CFF45F0100541
:10583000A061114B2B4053B1A169384600F08BFF9A
:10584000002810DB25F4003525F01005E560324610
:1058500041463846FDF736FA20F00043F61AA369B0
:105860001E44A66128B1E3684FF0FF3043F0800387
:10587000E360BDE8F08100BF10000200F8B5304FD2
:105880003C68A0B1C51CAD08002605F10A0E05F163
:10589000030C05E02368B3F1805F14D02646A468AA
:1058A000002CF7D10C3000F07BF9431C10D1002004
:1058B000F8BD1168B1F1805F15D151680B44033315
:1058C00063609368A360A2686368002AF1D10AE06C
:1058D0004FF0005380E8280084600EB9386000E083
:1058E000B0600C30F8BD9D4207DC634505DC204606
:1058F0004FF0005340F80C3BF8BD734511D92046DA
:105900004FF00051656040F80C1B00EB8501A16071
:105910004FF0805440F825405D1B033D4D608A6088
:10592000F8BD002ABAD1A0EB830000F039F90130AC
:10593000BDD04FF0005384E8280004F10C00F8BDFE
:1059400018430010A8B14FF0805340F80C3C50F8B9
:10595000042C72B11368B3F1805F0AD1536850F818
:10596000081C0B44033340F8083C936840F8043C9F
:10597000EDE7704710B5FFF781FF044628B91722FD
:105980000349FDF79FF900F0D9FE204610BD00BF86
:105990000D6A00002DE9F041C56888B0A9070446EA
:1059A000466A28D02A0719D4D0F81480076900F075
:1059B00027F8404600F0C3FE2B0502D53846FFF716
:1059C000C1FFAD0DAD0515F1A54F07D12022216A0C
:1059D000684600F0C3FE684600F0D8F8182200219F
:1059E000606AFEF7FDF8282200212046FEF7F8F84D
:1059F0006662002001E04FF0FF3008B0BDE8F081A2
:105A000070B5044618B1BDE8704000F0E9B805462D
:105A1000064E301900F0E4F82834002818BF4FF083
:105A2000FF35B4F5A07FF4D1284670BDD4410010F5
:105A30002DE9F843C668414B044633400D46904675
:105A4000002B77D0D0F81490484600F07EFE074631
:105A500000286FD1B8F1010F06D0B8F1020F08D0BD
:105A6000B8F1000F66D129E0204600F069F805443E
:105A700024E0484600F066FEB0F1000ED4F80CC0F9
:105A800004DA4CF08001E160012754E0606A836829
:105A90001A46A3691946236893422CBFC91889186E
:105AA00023691CF0200FA1EB030303D0426893424B
:105AB000B8BF13467345ACBFED187544002D39DBF4
:105AC00016F4005F626A04D023689168994238BF77
:105AD0009360A1698D4210DB20689368D4F810E0D0
